{
  "address": "0xB449F0336FEE0F76EbEF1B0230cc0325F8dEB25e",
  "abi": [
    {
      "inputs": [
        {
          "internalType": "address",
          "name": "_hegicBTCOptions",
          "type": "address"
        },
        {
          "internalType": "address",
          "name": "_alUSD",
          "type": "address"
        },
        {
          "internalType": "address",
          "name": "_Dai",
          "type": "address"
        },
        {
          "internalType": "address",
          "name": "_Weth",
          "type": "address"
        },
        {
          "internalType": "address",
          "name": "_Wbtc",
          "type": "address"
        },
        {
          "internalType": "address",
          "name": "_alUSDMetaPool",
          "type": "address"
        },
        {
          "internalType": "address",
          "name": "_uniswapV2Router02",
          "type": "address"
        },
        {
          "internalType": "address",
          "name": "_owner",
          "type": "address"
        },
        {
          "internalType": "uint256",
          "name": "_fee",
          "type": "uint256"
        }
      ],
      "stateMutability": "nonpayable",
      "type": "constructor"
    },
    {
      "anonymous": false,
      "inputs": [
        {
          "indexed": true,
          "internalType": "address",
          "name": "owner",
          "type": "address"
        },
        {
          "indexed": false,
          "internalType": "uint256",
          "name": "fee",
          "type": "uint256"
        }
      ],
      "name": "ChangeFee",
      "type": "event"
    },
    {
      "anonymous": false,
      "inputs": [
        {
          "indexed": true,
          "internalType": "address",
          "name": "previousOwner",
          "type": "address"
        },
        {
          "indexed": true,
          "internalType": "address",
          "name": "newOwner",
          "type": "address"
        }
      ],
      "name": "OwnershipTransferred",
      "type": "event"
    },
    {
      "anonymous": false,
      "inputs": [
        {
          "indexed": true,
          "internalType": "address",
          "name": "owner",
          "type": "address"
        },
        {
          "indexed": false,
          "internalType": "uint256",
          "name": "optionID",
          "type": "uint256"
        },
        {
          "indexed": false,
          "internalType": "uint256",
          "name": "purchasePrice",
          "type": "uint256"
        },
        {
          "indexed": false,
          "internalType": "address",
          "name": "purchaseToken",
          "type": "address"
        },
        {
          "indexed": false,
          "internalType": "uint256",
          "name": "cost",
          "type": "uint256"
        },
        {
          "indexed": false,
          "internalType": "uint256",
          "name": "fees",
          "type": "uint256"
        }
      ],
      "name": "PurchaseOption",
      "type": "event"
    },
    {
      "anonymous": false,
      "inputs": [
        {
          "indexed": true,
          "internalType": "address",
          "name": "owner",
          "type": "address"
        },
        {
          "indexed": false,
          "internalType": "uint256",
          "name": "amount",
          "type": "uint256"
        }
      ],
      "name": "WithdrawFees",
      "type": "event"
    },
    {
      "inputs": [],
      "name": "fee",
      "outputs": [
        {
          "internalType": "uint256",
          "name": "",
          "type": "uint256"
        }
      ],
      "stateMutability": "view",
      "type": "function"
    },
    {
      "inputs": [
        {
          "internalType": "uint256",
          "name": "period",
          "type": "uint256"
        },
        {
          "internalType": "uint256",
          "name": "fees",
          "type": "uint256"
        },
        {
          "internalType": "uint256",
          "name": "strike",
          "type": "uint256"
        },
        {
          "internalType": "enum IHegicOptionTypes.OptionType",
          "name": "optionType",
          "type": "uint8"
        }
      ],
      "name": "getAmount",
      "outputs": [
        {
          "internalType": "uint256",
          "name": "",
          "type": "uint256"
        }
      ],
      "stateMutability": "view",
      "type": "function"
    },
    {
      "inputs": [
        {
          "internalType": "uint256",
          "name": "amount",
          "type": "uint256"
        }
      ],
      "name": "getEthFeeFromAlUSD",
      "outputs": [
        {
          "internalType": "uint256",
          "name": "",
          "type": "uint256"
        }
      ],
      "stateMutability": "view",
      "type": "function"
    },
    {
      "inputs": [
        {
          "internalType": "uint256",
          "name": "period",
          "type": "uint256"
        },
        {
          "internalType": "uint256",
          "name": "amount",
          "type": "uint256"
        },
        {
          "internalType": "uint256",
          "name": "strike",
          "type": "uint256"
        },
        {
          "internalType": "enum IHegicOptionTypes.OptionType",
          "name": "optionType",
          "type": "uint8"
        }
      ],
      "name": "getOptionAmountFromAlUSD",
      "outputs": [
        {
          "internalType": "uint256",
          "name": "",
          "type": "uint256"
        }
      ],
      "stateMutability": "view",
      "type": "function"
    },
    {
      "inputs": [
        {
          "internalType": "address",
          "name": "owner",
          "type": "address"
        }
      ],
      "name": "getOptionsByOwner",
      "outputs": [
        {
          "components": [
            {
              "internalType": "uint256",
              "name": "id",
              "type": "uint256"
            },
            {
              "internalType": "uint256",
              "name": "priceInAlUSD",
              "type": "uint256"
            }
          ],
          "internalType": "struct ITBDv2.Option[]",
          "name": "",
          "type": "tuple[]"
        }
      ],
      "stateMutability": "view",
      "type": "function"
    },
    {
      "inputs": [
        {
          "internalType": "uint256",
          "name": "amount",
          "type": "uint256"
        }
      ],
      "name": "getUnderlyingFeeFromAlUSD",
      "outputs": [
        {
          "internalType": "uint256",
          "name": "",
          "type": "uint256"
        }
      ],
      "stateMutability": "view",
      "type": "function"
    },
    {
      "inputs": [
        {
          "internalType": "address",
          "name": "",
          "type": "address"
        },
        {
          "internalType": "uint256",
          "name": "",
          "type": "uint256"
        }
      ],
      "name": "optionsByOwner",
      "outputs": [
        {
          "internalType": "uint256",
          "name": "id",
          "type": "uint256"
        },
        {
          "internalType": "uint256",
          "name": "priceInAlUSD",
          "type": "uint256"
        }
      ],
      "stateMutability": "view",
      "type": "function"
    },
    {
      "inputs": [],
      "name": "owner",
      "outputs": [
        {
          "internalType": "address",
          "name": "",
          "type": "address"
        }
      ],
      "stateMutability": "view",
      "type": "function"
    },
    {
      "inputs": [
        {
          "internalType": "uint256",
          "name": "amount",
          "type": "uint256"
        },
        {
          "internalType": "uint256",
          "name": "strike",
          "type": "uint256"
        },
        {
          "internalType": "uint256",
          "name": "period",
          "type": "uint256"
        },
        {
          "internalType": "address",
          "name": "owner",
          "type": "address"
        },
        {
          "internalType": "enum IHegicOptionTypes.OptionType",
          "name": "optionType",
          "type": "uint8"
        },
        {
          "internalType": "uint256",
          "name": "minETH",
          "type": "uint256"
        }
      ],
      "name": "purchaseOptionWithAlUSD",
      "outputs": [
        {
          "internalType": "uint256",
          "name": "optionID",
          "type": "uint256"
        }
      ],
      "stateMutability": "nonpayable",
      "type": "function"
    },
    {
      "inputs": [],
      "name": "renounceOwnership",
      "outputs": [],
      "stateMutability": "nonpayable",
      "type": "function"
    },
    {
      "inputs": [
        {
          "internalType": "uint256",
          "name": "_fee",
          "type": "uint256"
        }
      ],
      "name": "setFee",
      "outputs": [],
      "stateMutability": "nonpayable",
      "type": "function"
    },
    {
      "inputs": [
        {
          "internalType": "address",
          "name": "newOwner",
          "type": "address"
        }
      ],
      "name": "transferOwnership",
      "outputs": [],
      "stateMutability": "nonpayable",
      "type": "function"
    },
    {
      "inputs": [
        {
          "internalType": "uint256",
          "name": "",
          "type": "uint256"
        }
      ],
      "name": "uniswapBtcExchangePath",
      "outputs": [
        {
          "internalType": "address",
          "name": "",
          "type": "address"
        }
      ],
      "stateMutability": "view",
      "type": "function"
    },
    {
      "inputs": [
        {
          "internalType": "uint256",
          "name": "",
          "type": "uint256"
        }
      ],
      "name": "uniswapExchangePath",
      "outputs": [
        {
          "internalType": "address",
          "name": "",
          "type": "address"
        }
      ],
      "stateMutability": "view",
      "type": "function"
    },
    {
      "inputs": [],
      "name": "withdrawFees",
      "outputs": [],
      "stateMutability": "nonpayable",
      "type": "function"
    },
    {
      "stateMutability": "payable",
      "type": "receive"
    }
  ],
  "transactionHash": "0x6732e11d8a84d2410b4f4aa250973f4fd55049c845cf0bb610ba5af6bb492e03",
  "args": [
    "0x3961245DB602eD7c03eECcda33eA3846bD8723BD",
    "0xBC6DA0FE9aD5f3b0d58160288917AA56653660E9",
    "0x6B175474E89094C44Da98b954EedeAC495271d0F",
    "0xc02aaa39b223fe8d0a0e5c4f27ead9083c756cc2",
    "0x2260fac5e5542a773aa44fbcfedf7c193bc2c599",
    "0x43b4fdfd4ff969587185cdb6f0bd875c5fc83f8c",
    "0x7a250d5630B4cF539739dF2C5dAcb4c659F2488D",
    "0x634FC1A8ADdBB59aD54A7e825a0d70Aa40d3f157",
    997000
  ],
  "solcInputHash": "6a2ca1d4f1f92e4320b6f8bf05fe5b0c",
  "bytecode": "0x60806040523480156200001157600080fd5b5060405162002746380380620027468339810160408190526200003491620005be565b60006200004062000403565b600080546001600160a01b0319166001600160a01b03831690811782556040519293509160008051602062002726833981519152908290a350620f4240811115620000a85760405162461bcd60e51b81526004016200009f906200078f565b60405180910390fd5b6001600160a01b038416620000d15760405162461bcd60e51b81526004016200009f9062000699565b6001600160a01b038916620000fa5760405162461bcd60e51b81526004016200009f9062000707565b6001600160a01b038816620001235760405162461bcd60e51b81526004016200009f906200066f565b6001600160a01b0387166200014c5760405162461bcd60e51b81526004016200009f906200073e565b6001600160a01b038616620001755760405162461bcd60e51b81526004016200009f9062000766565b6001600160a01b0385166200019e5760405162461bcd60e51b81526004016200009f90620007c6565b6001600160a01b038316620001c75760405162461bcd60e51b81526004016200009f90620006d0565b600280546001600160a01b03199081166001600160a01b038781169190911783556003805483168d83161790556005805483168c83161790556006805483168b83161790556008805483168a8316179055600780548316898316179055600480549092169086161790556001829055604080518281526060810182529190602083019080368337505081516200026592600a92506020019062000520565b5086600a6000815481106200027657fe5b9060005260206000200160006101000a8154816001600160a01b0302191690836001600160a01b0316021790555085600a600181548110620002b457fe5b600091825260209091200180546001600160a01b03929092166001600160a01b03199092169190911790556040805160028082526060820190925290816020016020820280368337505081516200031392600b92506020019062000520565b5085600b6000815481106200032457fe5b9060005260206000200160006101000a8154816001600160a01b0302191690836001600160a01b0316021790555084600b6001815481106200036257fe5b9060005260206000200160006101000a8154816001600160a01b0302191690836001600160a01b03160217905550620003a6826200040760201b62000f4d1760201c565b620003b062000511565b6001600160a01b03167fa433cdbe19ffaa542269ea24af0dae7d940f72e08a8a7ed872f006a149a908e1600154604051620003ec9190620007ef565b60405180910390a2505050505050505050620007f8565b3390565b6200041162000403565b6001600160a01b03166200042462000511565b6001600160a01b03161462000480576040805162461bcd60e51b815260206004820181905260248201527f4f776e61626c653a2063616c6c6572206973206e6f7420746865206f776e6572604482015290519081900360640190fd5b6001600160a01b038116620004c75760405162461bcd60e51b8152600401808060200182810382526026815260200180620027006026913960400191505060405180910390fd5b600080546040516001600160a01b03808516939216916000805160206200272683398151915291a3600080546001600160a01b0319166001600160a01b0392909216919091179055565b6000546001600160a01b031690565b82805482825590600052602060002090810192821562000578579160200282015b828111156200057857825182546001600160a01b0319166001600160a01b0390911617825560209092019160019091019062000541565b50620005869291506200058a565b5090565b5b808211156200058657600081556001016200058b565b80516001600160a01b0381168114620005b957600080fd5b919050565b60008060008060008060008060006101208a8c031215620005dd578485fd5b620005e88a620005a1565b9850620005f860208b01620005a1565b97506200060860408b01620005a1565b96506200061860608b01620005a1565b95506200062860808b01620005a1565b94506200063860a08b01620005a1565b93506200064860c08b01620005a1565b92506200065860e08b01620005a1565b91506101008a015190509295985092959850929598565b60208082526010908201526f1510911d8c8bdb9d5b1b0b585b1d5cd960821b604082015260600190565b60208082526015908201527f54424476322f6e756c6c2d616c7573642d706f6f6c0000000000000000000000604082015260600190565b60208082526019908201527f54424476322f6e756c6c2d756e69737761702d726f7574657200000000000000604082015260600190565b6020808252601c908201527f54424476322f6e756c6c2d68656769632d6274632d6f7074696f6e7300000000604082015260600190565b6020808252600e908201526d54424476322f6e756c6c2d64616960901b604082015260600190565b6020808252600f908201526e0a88488ec645edcead8d85aeecae8d608b1b604082015260600190565b60208082526018908201527f54424476322f696e76616c69642d6665652d616d6f756e740000000000000000604082015260600190565b6020808252600f908201526e54424476322f6e756c6c2d7762746360881b604082015260600190565b90815260200190565b611ef880620008086000396000f3fe6080604052600436106100ec5760003560e01c806383d3bb791161008a578063ddca3f4311610059578063ddca3f4314610277578063e8d53be61461028c578063f2fde38b146102ac578063f43e56d7146102cc576100f3565b806383d3bb79146102025780638da5cb5b1461022257806397bcb1a714610237578063cd3a1ca214610257576100f3565b806369fe0e2d116100c657806369fe0e2d14610172578063715018a6146101925780637a6d1cfe146101a75780637dd8828a146101d5576100f3565b80630c242f0c146100f8578063476343ee1461012e57806351826dbd14610145576100f3565b366100f357005b600080fd5b34801561010457600080fd5b506101186101133660046119a8565b6102ec565b6040516101259190611d69565b60405180910390f35b34801561013a57600080fd5b50610143610425565b005b34801561015157600080fd5b50610165610160366004611877565b61057e565b6040516101259190611b58565b34801561017e57600080fd5b5061014361018d3660046119a8565b610607565b34801561019e57600080fd5b506101436106de565b3480156101b357600080fd5b506101c76101c23660046118af565b61078a565b604051610125929190611da2565b3480156101e157600080fd5b506101f56101f03660046119a8565b6107c6565b6040516101259190611b07565b34801561020e57600080fd5b5061011861021d3660046119a8565b6107f0565b34801561022e57600080fd5b506101f56109bf565b34801561024357600080fd5b506101f56102523660046119a8565b6109ce565b34801561026357600080fd5b50610118610272366004611a31565b6109de565b34801561028357600080fd5b50610118610b1e565b34801561029857600080fd5b506101186102a7366004611a31565b610b24565b3480156102b857600080fd5b506101436102c7366004611877565b610f4d565b3480156102d857600080fd5b506101186102e73660046119d8565b61104f565b6002546040516307211ef760e01b815260009182916001600160a01b03909116906307211ef7906103269084906001908890600401611bca565b60206040518083038186803b15801561033e57600080fd5b505afa158015610352573d6000803e3d6000fd5b505050506040513d601f19601f8201168201806040525081019061037691906119c0565b6004805460405163d06ca61f60e01b815292935061041c926001600160a01b039091169163d06ca61f916103af918691600a9101611d89565b60006040518083038186803b1580156103c757600080fd5b505afa1580156103db573d6000803e3d6000fd5b505050506040513d6000823e601f3d908101601f1916820160405261040391908101906118da565b60018151811061040f57fe5b6020026020010151611666565b9150505b919050565b61042d61168a565b6001600160a01b031661043e6109bf565b6001600160a01b031614610487576040805162461bcd60e51b81526020600482018190526024820152600080516020611ea3833981519152604482015290519081900360640190fd5b600047116104b05760405162461bcd60e51b81526004016104a790611c8d565b60405180910390fd5b6104b86109bf565b6001600160a01b03167f9bba815921f12cb7b1408e14b5ade745234397d39623ae5e7c82d693cb45815f476040516104f09190611d69565b60405180910390a260006105026109bf565b6001600160a01b03164760405161051890611b04565b60006040518083038185875af1925050503d8060008114610555576040519150601f19603f3d011682016040523d82523d6000602084013e61055a565b606091505b505090508061057b5760405162461bcd60e51b81526004016104a790611be8565b50565b6001600160a01b0381166000908152600960209081526040808320805482518185028101850190935280835260609492939192909184015b828210156105fc578382906000526020600020906002020160405180604001604052908160008201548152602001600182015481525050815260200190600101906105b6565b505050509050919050565b61060f61168a565b6001600160a01b03166106206109bf565b6001600160a01b031614610669576040805162461bcd60e51b81526020600482018190526024820152600080516020611ea3833981519152604482015290519081900360640190fd5b620f424081111561068c5760405162461bcd60e51b81526004016104a790611cc4565b60018190556106996109bf565b6001600160a01b03167fa433cdbe19ffaa542269ea24af0dae7d940f72e08a8a7ed872f006a149a908e16001546040516106d39190611d69565b60405180910390a250565b6106e661168a565b6001600160a01b03166106f76109bf565b6001600160a01b031614610740576040805162461bcd60e51b81526020600482018190526024820152600080516020611ea3833981519152604482015290519081900360640190fd5b600080546040516001600160a01b03909116907f8be0079c531659141344cd1fd0a4f28419497f9722a3daafe3b4186f6b6457e0908390a3600080546001600160a01b0319169055565b600960205281600052604060002081815481106107a657600080fd5b600091825260209091206002909102018054600190910154909250905082565b600b81815481106107d657600080fd5b6000918252602090912001546001600160a01b0316905081565b6002546040516307211ef760e01b815260009182916001600160a01b03909116906307211ef79061082a9084906001908890600401611bca565b60206040518083038186803b15801561084257600080fd5b505afa158015610856573d6000803e3d6000fd5b505050506040513d601f19601f8201168201806040525081019061087a91906119c0565b6004805460405163d06ca61f60e01b81529293506000926001600160a01b039091169163d06ca61f916108b2918691600a9101611d89565b60006040518083038186803b1580156108ca57600080fd5b505afa1580156108de573d6000803e3d6000fd5b505050506040513d6000823e601f3d908101601f1916820160405261090691908101906118da565b60045481519192506001600160a01b03169063d06ca61f9061092f908490600190811061040f57fe5b600b6040518363ffffffff1660e01b815260040161094e929190611d89565b60006040518083038186803b15801561096657600080fd5b505afa15801561097a573d6000803e3d6000fd5b505050506040513d6000823e601f3d908101601f191682016040526109a291908101906118da565b6001815181106109ae57fe5b602002602001015192505050919050565b6000546001600160a01b031690565b600a81815481106107d657600080fd5b6002546040516307211ef760e01b815260009182916001600160a01b03909116906307211ef790610a189084906001908a90600401611bca565b60206040518083038186803b158015610a3057600080fd5b505afa158015610a44573d6000803e3d6000fd5b505050506040513d601f19601f82011682018060405250810190610a6891906119c0565b6004805460405163d06ca61f60e01b81529293506000926001600160a01b039091169163d06ca61f91610aa0918691600a9101611d89565b60006040518083038186803b158015610ab857600080fd5b505afa158015610acc573d6000803e3d6000fd5b505050506040513d6000823e601f3d908101601f19168201604052610af491908101906118da565b9050610b1187610b0a8360018151811061040f57fe5b8787610b24565b925050505b949350505050565b60015481565b60006001826002811115610b3457fe5b1480610b4b57506002826002811115610b4957fe5b145b610b675760405162461bcd60e51b81526004016104a790611c1f565b60035460408051635c4443cf60e11b815290516000926001600160a01b03169163b888879e916004808301926020929190829003018186803b158015610bac57600080fd5b505afa158015610bc0573d6000803e3d6000fd5b505050506040513d601f19601f82011682018060405250810190610be49190611893565b6001600160a01b031663feaf968c6040518163ffffffff1660e01b815260040160a06040518083038186803b158015610c1c57600080fd5b505afa158015610c30573d6000803e3d6000fd5b505050506040513d601f19601f82011682018060405250810190610c549190611a6f565b5050600354604080516318f88e5b60e01b815290519395508594506000936001600160a01b0390921692506318f88e5b916004808301926020929190829003018186803b158015610ca457600080fd5b505afa158015610cb8573d6000803e3d6000fd5b505050506040513d601f19601f82011682018060405250810190610cdc91906119c0565b6004805460405163d06ca61f60e01b81529293506000926001600160a01b039091169163d06ca61f91610d14918c91600b9101611d89565b60006040518083038186803b158015610d2c57600080fd5b505afa158015610d40573d6000803e3d6000fd5b505050506040513d6000823e601f3d908101601f19168201604052610d6891908101906118da565b600181518110610d7457fe5b6020026020010151905060016002811115610d8b57fe5b866002811115610d9757fe5b1415610e895782871115610e3a576000610dbf6305f5e100610db9848761168e565b9061168e565b90506000610dcc8b6116ee565b90506000610de96064610de3886305f5e10061168e565b90611730565b9050610e03610dfc8b610db9858961168e565b8290611797565b9050610e20610dfc610e158c896117f1565b6305f5e1009061168e565b9050610e2c8382611730565b975050505050505050610b16565b6000610e4e6305f5e100610db9848761168e565b90506000610e5b8b6116ee565b90506000610e20610e756064610de3896305f5e10061168e565b610e8387610db9868f61168e565b90611797565b82871015610f04576000610ea784610db96305f5e10081868d61168e565b90506000610eb48b6116ee565b90506000610ecf86610db96064610de38e6305f5e10061168e565b9050610ee4610dfc87610db98181878b61168e565b9050610e20610dfc610ef6888d6117f1565b610db98d6305f5e10061168e565b6000610f186305f5e100610db9848b61168e565b90506000610f258b6116ee565b90506000610e20610f3f6064610de38d6305f5e10061168e565b610e8387610db9868b61168e565b610f5561168a565b6001600160a01b0316610f666109bf565b6001600160a01b031614610faf576040805162461bcd60e51b81526020600482018190526024820152600080516020611ea3833981519152604482015290519081900360640190fd5b6001600160a01b038116610ff45760405162461bcd60e51b8152600401808060200182810382526026815260200180611e5c6026913960400191505060405180910390fd5b600080546040516001600160a01b03808516939216917f8be0079c531659141344cd1fd0a4f28419497f9722a3daafe3b4186f6b6457e091a3600080546001600160a01b0319166001600160a01b0392909216919091179055565b6005546040516323b872dd60e01b81526000916001600160a01b0316906323b872dd9061108490339030908c90600401611b1b565b602060405180830381600087803b15801561109e57600080fd5b505af11580156110b2573d6000803e3d6000fd5b505050506040513d601f19601f820116820180604052508101906110d69190611988565b6110f25760405162461bcd60e51b81526004016104a790611cfb565b6002546040516307211ef760e01b81526000916001600160a01b0316906307211ef7906111289084906001908d90600401611bca565b60206040518083038186803b15801561114057600080fd5b505afa158015611154573d6000803e3d6000fd5b505050506040513d601f19601f8201168201806040525081019061117891906119c0565b60055460025460405163095ea7b360e01b81529293506001600160a01b039182169263095ea7b3926111b09216908c90600401611b3f565b602060405180830381600087803b1580156111ca57600080fd5b505af11580156111de573d6000803e3d6000fd5b505050506040513d601f19601f820116820180604052508101906112029190611988565b50600254604051635320bf6b60e11b815282916001600160a01b03169063a6417ed69061123b906000906001908e908790600401611ba7565b602060405180830381600087803b15801561125557600080fd5b505af1158015611269573d6000803e3d6000fd5b505050506040513d601f19601f8201168201806040525081019061128d91906119c0565b146112aa5760405162461bcd60e51b81526004016104a790611c56565b6004805460405163d06ca61f60e01b81526000926001600160a01b039092169163d06ca61f916112df918691600a9101611d89565b60006040518083038186803b1580156112f757600080fd5b505afa15801561130b573d6000803e3d6000fd5b505050506040513d6000823e601f3d908101601f1916820160405261133391908101906118da565b9050836113468260018151811061040f57fe5b116113635760405162461bcd60e51b81526004016104a790611d32565b6006546004805460405163095ea7b360e01b81526001600160a01b039384169363095ea7b3936113999390911691879101611b3f565b602060405180830381600087803b1580156113b357600080fd5b505af11580156113c7573d6000803e3d6000fd5b505050506040513d601f19601f820116820180604052508101906113eb9190611988565b50600480546040516318cbafe560e01b81526001600160a01b03909116916318cbafe5916114249186918991600a913091429101611ddc565b600060405180830381600087803b15801561143e57600080fd5b505af1158015611452573d6000803e3d6000fd5b505050506040513d6000823e601f3d908101601f1916820160405261147a91908101906118da565b9050600061148e8260018151811061040f57fe5b9050600061149e89838c8a610b24565b9050600360009054906101000a90046001600160a01b03166001600160a01b03166380478ad1838b848e8c6040518663ffffffff1660e01b81526004016114e89493929190611e18565b6020604051808303818588803b15801561150157600080fd5b505af1158015611515573d6000803e3d6000fd5b50505050506040513d601f19601f8201168201806040525081019061153a91906119c0565b60035460405163b7760c8f60e01b81529196506001600160a01b03169063b7760c8f9061156d9088908c90600401611d72565b600060405180830381600087803b15801561158757600080fd5b505af115801561159b573d6000803e3d6000fd5b50505050876001600160a01b03167f0e724df5e11c1b48b06e1835c912b401da8da0d8644be829f811bc3112e26340868d600560009054906101000a90046001600160a01b03168687896001815181106115f157fe5b60200260200101510360405161160b959493929190611db0565b60405180910390a2505033600090815260096020908152604080832081518083019092528682528183018d81528154600181810184559286529390942091516002909302909101918255915191015550509695505050505050565b6000611684620f4240610de36001548561168e90919063ffffffff16565b92915050565b3390565b60008261169d57506000611684565b828202828482816116aa57fe5b04146116e75760405162461bcd60e51b8152600401808060200182810382526021815260200180611e826021913960400191505060405180910390fd5b9392505050565b8060006117016001610e83846002611730565b90505b8181101561172a57806117206002610de383610e838882611730565b9092509050611704565b50919050565b6000808211611786576040805162461bcd60e51b815260206004820152601a60248201527f536166654d6174683a206469766973696f6e206279207a65726f000000000000604482015290519081900360640190fd5b81838161178f57fe5b049392505050565b6000828201838110156116e7576040805162461bcd60e51b815260206004820152601b60248201527f536166654d6174683a206164646974696f6e206f766572666c6f770000000000604482015290519081900360640190fd5b600082821115611848576040805162461bcd60e51b815260206004820152601e60248201527f536166654d6174683a207375627472616374696f6e206f766572666c6f770000604482015290519081900360640190fd5b50900390565b80356003811061042057600080fd5b805169ffffffffffffffffffff8116811461042057600080fd5b600060208284031215611888578081fd5b81356116e781611e46565b6000602082840312156118a4578081fd5b81516116e781611e46565b600080604083850312156118c1578081fd5b82356118cc81611e46565b946020939093013593505050565b600060208083850312156118ec578182fd5b825167ffffffffffffffff80821115611903578384fd5b818501915085601f830112611916578384fd5b81518181111561192257fe5b8381026040518582820101818110858211171561193b57fe5b604052828152858101935084860182860187018a1015611959578788fd5b8795505b8386101561197b57805185526001959095019493860193860161195d565b5098975050505050505050565b600060208284031215611999578081fd5b815180151581146116e7578182fd5b6000602082840312156119b9578081fd5b5035919050565b6000602082840312156119d1578081fd5b5051919050565b60008060008060008060c087890312156119f0578182fd5b8635955060208701359450604087013593506060870135611a1081611e46565b9250611a1e6080880161184e565b915060a087013590509295509295509295565b60008060008060808587031215611a46578384fd5b843593506020850135925060408501359150611a646060860161184e565b905092959194509250565b600080600080600060a08688031215611a86578081fd5b611a8f8661185d565b9450602086015193506040860151925060608601519150611ab26080870161185d565b90509295509295909350565b6000815480845260208085019450838352808320835b83811015611af95781546001600160a01b031687529582019560019182019101611ad4565b509495945050505050565b90565b6001600160a01b0391909116815260200190565b6001600160a01b039384168152919092166020820152604081019190915260600190565b6001600160a01b03929092168252602082015260400190565b602080825282518282018190526000919060409081850190868401855b82811015611b9a57815180518552860151868501529284019290850190600101611b75565b5091979650505050505050565b600f94850b81529290930b60208301526040820152606081019190915260800190565b600f93840b81529190920b6020820152604081019190915260600190565b6020808252601d908201527f54424476322f6572726f722d7768696c652d7769746864726177696e67000000604082015260600190565b60208082526019908201527f54424476322f696e76616c69642d6f7074696f6e2d7479706500000000000000604082015260600190565b6020808252601e908201527f54424476322f63616e6e6f742d737761702d616c7573642d746f2d6461690000604082015260600190565b60208082526017908201527f54424476322f6e6f2d636f6c6c65637465642d66656573000000000000000000604082015260600190565b60208082526018908201527f54424476322f696e76616c69642d6665652d616d6f756e740000000000000000604082015260600190565b60208082526019908201527f5442442f63616e6e6f742d7472616e736665722d616c75736400000000000000604082015260600190565b60208082526019908201527f54424476322f6d696e2d6574682d6e6f742d7265616368656400000000000000604082015260600190565b90815260200190565b9182526001600160a01b0316602082015260400190565b600083825260406020830152610b166040830184611abe565b918252602082015260400190565b94855260208501939093526001600160a01b039190911660408401526060830152608082015260a00190565b600086825285602083015260a06040830152611dfb60a0830186611abe565b6001600160a01b0394909416606083015250608001529392505050565b84815260208101849052604081018390526080810160038310611e3757fe5b82606083015295945050505050565b6001600160a01b038116811461057b57600080fdfe4f776e61626c653a206e6577206f776e657220697320746865207a65726f2061646472657373536166654d6174683a206d756c7469706c69636174696f6e206f766572666c6f774f776e61626c653a2063616c6c6572206973206e6f7420746865206f776e6572a26469706673582212206fa8cb3c621c8ecfd900ab37c026f940e953a2cad4e443c6250aef9759cafcfc64736f6c634300070600334f776e61626c653a206e6577206f776e657220697320746865207a65726f20616464726573738be0079c531659141344cd1fd0a4f28419497f9722a3daafe3b4186f6b6457e0",
  "devdoc": {
    "kind": "dev",
    "methods": {
      "getAmount(uint256,uint256,uint256,uint8)": {
        "params": {
          "fees": "Amount of Eth paid",
          "optionType": "1 for PUT, 2 for CALL",
          "period": "Option period in seconds (min 1 day, max 28 days) ",
          "strike": "Strike price (with 8 decimals)"
        }
      },
      "getEthFeeFromAlUSD(uint256)": {
        "params": {
          "amount": "alUSD amount used"
        }
      },
      "getOptionAmountFromAlUSD(uint256,uint256,uint256,uint8)": {
        "params": {
          "amount": "Amount of AlUSD paid",
          "optionType": "1 for PUT, 2 for CALL",
          "period": "Option period in seconds (min 1 day, max 28 days) ",
          "strike": "Strike price (with 8 decimals)"
        }
      },
      "getOptionsByOwner(address)": {
        "params": {
          "owner": "Owner of the options to retrieve"
        }
      },
      "getUnderlyingFeeFromAlUSD(uint256)": {
        "params": {
          "amount": "alUSD amount used"
        }
      },
      "owner()": {
        "details": "Returns the address of the current owner."
      },
      "renounceOwnership()": {
        "details": "Leaves the contract without owner. It will not be possible to call `onlyOwner` functions anymore. Can only be called by the current owner. NOTE: Renouncing ownership will leave the contract without an owner, thereby removing any functionality that is only available to the owner."
      },
      "setFee(uint256)": {
        "params": {
          "_fee": "The new fee to use. To set 1% fees => 990000, 0.1% fees => 999000 "
        }
      },
      "transferOwnership(address)": {
        "details": "Transfers ownership of the contract to a new account (`newOwner`). Can only be called by the current owner."
      }
    },
    "version": 1
  },
  "userdoc": {
    "kind": "user",
    "methods": {
      "getAmount(uint256,uint256,uint256,uint8)": {
        "notice": "Retrieve the option size from the raw eth fee paid to Hegic"
      },
      "getEthFeeFromAlUSD(uint256)": {
        "notice": "Retrieve option creation cost in eth"
      },
      "getOptionAmountFromAlUSD(uint256,uint256,uint256,uint8)": {
        "notice": "Retrieve the option size depending on all parameters + alUSD paid"
      },
      "getOptionsByOwner(address)": {
        "notice": "Retrieve created options"
      },
      "getUnderlyingFeeFromAlUSD(uint256)": {
        "notice": "Retrieve option creation cost in the underlying token"
      },
      "purchaseOptionWithAlUSD(uint256,uint256,uint256,address,uint8,uint256)": {
        "notice": "ITBDv2 overriden functions"
      },
      "setFee(uint256)": {
        "notice": "Change the charged fee on each option purchase"
      },
      "withdrawFees()": {
        "notice": "Withdraw collected fees (all contract eth balance) to owner address"
      }
    },
    "version": 1
  },
  "storageLayout": {
    "storage": [
      {
        "astId": 7,
        "contract": "contracts/TBDBTCv2.sol:TBDBTCv2",
        "label": "_owner",
        "offset": 0,
        "slot": "0",
        "type": "t_address"
      },
      {
        "astId": 3782,
        "contract": "contracts/TBDBTCv2.sol:TBDBTCv2",
        "label": "fee",
        "offset": 0,
        "slot": "1",
        "type": "t_uint256"
      },
      {
        "astId": 1293,
        "contract": "contracts/TBDBTCv2.sol:TBDBTCv2",
        "label": "alUSDMetaPool",
        "offset": 0,
        "slot": "2",
        "type": "t_contract(ICurve)3916"
      },
      {
        "astId": 1295,
        "contract": "contracts/TBDBTCv2.sol:TBDBTCv2",
        "label": "hegicBTCOptions",
        "offset": 0,
        "slot": "3",
        "type": "t_contract(IHegicBTCOptions)4051"
      },
      {
        "astId": 1297,
        "contract": "contracts/TBDBTCv2.sol:TBDBTCv2",
        "label": "uniswapV2Router02",
        "offset": 0,
        "slot": "4",
        "type": "t_contract(IUniswapV2Router02)4380"
      },
      {
        "astId": 1299,
        "contract": "contracts/TBDBTCv2.sol:TBDBTCv2",
        "label": "alUSD",
        "offset": 0,
        "slot": "5",
        "type": "t_contract(IERC20)3946"
      },
      {
        "astId": 1301,
        "contract": "contracts/TBDBTCv2.sol:TBDBTCv2",
        "label": "Dai",
        "offset": 0,
        "slot": "6",
        "type": "t_contract(IERC20)3946"
      },
      {
        "astId": 1303,
        "contract": "contracts/TBDBTCv2.sol:TBDBTCv2",
        "label": "Wbtc",
        "offset": 0,
        "slot": "7",
        "type": "t_contract(IERC20)3946"
      },
      {
        "astId": 1305,
        "contract": "contracts/TBDBTCv2.sol:TBDBTCv2",
        "label": "Weth",
        "offset": 0,
        "slot": "8",
        "type": "t_contract(IWETH)4391"
      },
      {
        "astId": 1310,
        "contract": "contracts/TBDBTCv2.sol:TBDBTCv2",
        "label": "optionsByOwner",
        "offset": 0,
        "slot": "9",
        "type": "t_mapping(t_address,t_array(t_struct(Option)4277_storage)dyn_storage)"
      },
      {
        "astId": 1313,
        "contract": "contracts/TBDBTCv2.sol:TBDBTCv2",
        "label": "uniswapExchangePath",
        "offset": 0,
        "slot": "10",
        "type": "t_array(t_address)dyn_storage"
      },
      {
        "astId": 1316,
        "contract": "contracts/TBDBTCv2.sol:TBDBTCv2",
        "label": "uniswapBtcExchangePath",
        "offset": 0,
        "slot": "11",
        "type": "t_array(t_address)dyn_storage"
      }
    ],
    "types": {
      "t_address": {
        "encoding": "inplace",
        "label": "address",
        "numberOfBytes": "20"
      },
      "t_array(t_address)dyn_storage": {
        "base": "t_address",
        "encoding": "dynamic_array",
        "label": "address[]",
        "numberOfBytes": "32"
      },
      "t_array(t_struct(Option)4277_storage)dyn_storage": {
        "base": "t_struct(Option)4277_storage",
        "encoding": "dynamic_array",
        "label": "struct ITBDv2.Option[]",
        "numberOfBytes": "32"
      },
      "t_contract(ICurve)3916": {
        "encoding": "inplace",
        "label": "contract ICurve",
        "numberOfBytes": "20"
      },
      "t_contract(IERC20)3946": {
        "encoding": "inplace",
        "label": "contract IERC20",
        "numberOfBytes": "20"
      },
      "t_contract(IHegicBTCOptions)4051": {
        "encoding": "inplace",
        "label": "contract IHegicBTCOptions",
        "numberOfBytes": "20"
      },
      "t_contract(IUniswapV2Router02)4380": {
        "encoding": "inplace",
        "label": "contract IUniswapV2Router02",
        "numberOfBytes": "20"
      },
      "t_contract(IWETH)4391": {
        "encoding": "inplace",
        "label": "contract IWETH",
        "numberOfBytes": "20"
      },
      "t_mapping(t_address,t_array(t_struct(Option)4277_storage)dyn_storage)": {
        "encoding": "mapping",
        "key": "t_address",
        "label": "mapping(address => struct ITBDv2.Option[])",
        "numberOfBytes": "32",
        "value": "t_array(t_struct(Option)4277_storage)dyn_storage"
      },
      "t_struct(Option)4277_storage": {
        "encoding": "inplace",
        "label": "struct ITBDv2.Option",
        "members": [
          {
            "astId": 4274,
            "contract": "contracts/TBDBTCv2.sol:TBDBTCv2",
            "label": "id",
            "offset": 0,
            "slot": "0",
            "type": "t_uint256"
          },
          {
            "astId": 4276,
            "contract": "contracts/TBDBTCv2.sol:TBDBTCv2",
            "label": "priceInAlUSD",
            "offset": 0,
            "slot": "1",
            "type": "t_uint256"
          }
        ],
        "numberOfBytes": "64"
      },
      "t_uint256": {
        "encoding": "inplace",
        "label": "uint256",
        "numberOfBytes": "32"
      }
    }
  }
}