{
  "address": "0x3aada11d8446caA9f8acCae15ab3d30A7193f6d3",
  "abi": [
    {
      "inputs": [
        {
          "internalType": "address",
          "name": "_hegicETHOptions",
          "type": "address"
        },
        {
          "internalType": "address",
          "name": "_alUSD",
          "type": "address"
        },
        {
          "internalType": "address",
          "name": "_Dai",
          "type": "address"
        },
        {
          "internalType": "address",
          "name": "_Weth",
          "type": "address"
        },
        {
          "internalType": "address",
          "name": "_alUSDMetaPool",
          "type": "address"
        },
        {
          "internalType": "address",
          "name": "_uniswapV2Router02",
          "type": "address"
        },
        {
          "internalType": "address",
          "name": "_owner",
          "type": "address"
        },
        {
          "internalType": "uint256",
          "name": "_fee",
          "type": "uint256"
        }
      ],
      "stateMutability": "nonpayable",
      "type": "constructor"
    },
    {
      "anonymous": false,
      "inputs": [
        {
          "indexed": true,
          "internalType": "address",
          "name": "owner",
          "type": "address"
        },
        {
          "indexed": false,
          "internalType": "uint256",
          "name": "fee",
          "type": "uint256"
        }
      ],
      "name": "ChangeFee",
      "type": "event"
    },
    {
      "anonymous": false,
      "inputs": [
        {
          "indexed": true,
          "internalType": "address",
          "name": "previousOwner",
          "type": "address"
        },
        {
          "indexed": true,
          "internalType": "address",
          "name": "newOwner",
          "type": "address"
        }
      ],
      "name": "OwnershipTransferred",
      "type": "event"
    },
    {
      "anonymous": false,
      "inputs": [
        {
          "indexed": true,
          "internalType": "address",
          "name": "owner",
          "type": "address"
        },
        {
          "indexed": false,
          "internalType": "uint256",
          "name": "optionID",
          "type": "uint256"
        },
        {
          "indexed": false,
          "internalType": "uint256",
          "name": "purchasePrice",
          "type": "uint256"
        },
        {
          "indexed": false,
          "internalType": "address",
          "name": "purchaseToken",
          "type": "address"
        },
        {
          "indexed": false,
          "internalType": "uint256",
          "name": "cost",
          "type": "uint256"
        },
        {
          "indexed": false,
          "internalType": "uint256",
          "name": "fees",
          "type": "uint256"
        }
      ],
      "name": "PurchaseOption",
      "type": "event"
    },
    {
      "anonymous": false,
      "inputs": [
        {
          "indexed": true,
          "internalType": "address",
          "name": "owner",
          "type": "address"
        },
        {
          "indexed": false,
          "internalType": "uint256",
          "name": "amount",
          "type": "uint256"
        }
      ],
      "name": "WithdrawFees",
      "type": "event"
    },
    {
      "inputs": [],
      "name": "fee",
      "outputs": [
        {
          "internalType": "uint256",
          "name": "",
          "type": "uint256"
        }
      ],
      "stateMutability": "view",
      "type": "function"
    },
    {
      "inputs": [
        {
          "internalType": "uint256",
          "name": "period",
          "type": "uint256"
        },
        {
          "internalType": "uint256",
          "name": "fees",
          "type": "uint256"
        },
        {
          "internalType": "uint256",
          "name": "strike",
          "type": "uint256"
        },
        {
          "internalType": "enum IHegicOptionTypes.OptionType",
          "name": "optionType",
          "type": "uint8"
        }
      ],
      "name": "getAmount",
      "outputs": [
        {
          "internalType": "uint256",
          "name": "",
          "type": "uint256"
        }
      ],
      "stateMutability": "view",
      "type": "function"
    },
    {
      "inputs": [
        {
          "internalType": "uint256",
          "name": "amount",
          "type": "uint256"
        }
      ],
      "name": "getEthFeeFromAlUSD",
      "outputs": [
        {
          "internalType": "uint256",
          "name": "",
          "type": "uint256"
        }
      ],
      "stateMutability": "view",
      "type": "function"
    },
    {
      "inputs": [
        {
          "internalType": "uint256",
          "name": "period",
          "type": "uint256"
        },
        {
          "internalType": "uint256",
          "name": "amount",
          "type": "uint256"
        },
        {
          "internalType": "uint256",
          "name": "strike",
          "type": "uint256"
        },
        {
          "internalType": "enum IHegicOptionTypes.OptionType",
          "name": "optionType",
          "type": "uint8"
        }
      ],
      "name": "getOptionAmountFromAlUSD",
      "outputs": [
        {
          "internalType": "uint256",
          "name": "",
          "type": "uint256"
        }
      ],
      "stateMutability": "view",
      "type": "function"
    },
    {
      "inputs": [
        {
          "internalType": "address",
          "name": "owner",
          "type": "address"
        }
      ],
      "name": "getOptionsByOwner",
      "outputs": [
        {
          "components": [
            {
              "internalType": "uint256",
              "name": "id",
              "type": "uint256"
            },
            {
              "internalType": "uint256",
              "name": "priceInAlUSD",
              "type": "uint256"
            }
          ],
          "internalType": "struct ITBDv2.Option[]",
          "name": "",
          "type": "tuple[]"
        }
      ],
      "stateMutability": "view",
      "type": "function"
    },
    {
      "inputs": [
        {
          "internalType": "uint256",
          "name": "amount",
          "type": "uint256"
        }
      ],
      "name": "getUnderlyingFeeFromAlUSD",
      "outputs": [
        {
          "internalType": "uint256",
          "name": "",
          "type": "uint256"
        }
      ],
      "stateMutability": "view",
      "type": "function"
    },
    {
      "inputs": [
        {
          "internalType": "address",
          "name": "",
          "type": "address"
        },
        {
          "internalType": "uint256",
          "name": "",
          "type": "uint256"
        }
      ],
      "name": "optionsByOwner",
      "outputs": [
        {
          "internalType": "uint256",
          "name": "id",
          "type": "uint256"
        },
        {
          "internalType": "uint256",
          "name": "priceInAlUSD",
          "type": "uint256"
        }
      ],
      "stateMutability": "view",
      "type": "function"
    },
    {
      "inputs": [],
      "name": "owner",
      "outputs": [
        {
          "internalType": "address",
          "name": "",
          "type": "address"
        }
      ],
      "stateMutability": "view",
      "type": "function"
    },
    {
      "inputs": [
        {
          "internalType": "uint256",
          "name": "amount",
          "type": "uint256"
        },
        {
          "internalType": "uint256",
          "name": "strike",
          "type": "uint256"
        },
        {
          "internalType": "uint256",
          "name": "period",
          "type": "uint256"
        },
        {
          "internalType": "address",
          "name": "owner",
          "type": "address"
        },
        {
          "internalType": "enum IHegicOptionTypes.OptionType",
          "name": "optionType",
          "type": "uint8"
        },
        {
          "internalType": "uint256",
          "name": "minETH",
          "type": "uint256"
        }
      ],
      "name": "purchaseOptionWithAlUSD",
      "outputs": [
        {
          "internalType": "uint256",
          "name": "optionID",
          "type": "uint256"
        }
      ],
      "stateMutability": "nonpayable",
      "type": "function"
    },
    {
      "inputs": [],
      "name": "renounceOwnership",
      "outputs": [],
      "stateMutability": "nonpayable",
      "type": "function"
    },
    {
      "inputs": [
        {
          "internalType": "uint256",
          "name": "_fee",
          "type": "uint256"
        }
      ],
      "name": "setFee",
      "outputs": [],
      "stateMutability": "nonpayable",
      "type": "function"
    },
    {
      "inputs": [
        {
          "internalType": "address",
          "name": "newOwner",
          "type": "address"
        }
      ],
      "name": "transferOwnership",
      "outputs": [],
      "stateMutability": "nonpayable",
      "type": "function"
    },
    {
      "inputs": [
        {
          "internalType": "uint256",
          "name": "",
          "type": "uint256"
        }
      ],
      "name": "uniswapExchangePath",
      "outputs": [
        {
          "internalType": "address",
          "name": "",
          "type": "address"
        }
      ],
      "stateMutability": "view",
      "type": "function"
    },
    {
      "inputs": [],
      "name": "withdrawFees",
      "outputs": [],
      "stateMutability": "nonpayable",
      "type": "function"
    },
    {
      "stateMutability": "payable",
      "type": "receive"
    }
  ],
  "transactionHash": "0x472d862fd60fda0fab2306393ebef5900c999ede72031e8c3176a4951f329263",
  "args": [
    "0xEfC0eEAdC1132A12c9487d800112693bf49EcfA2",
    "0xBC6DA0FE9aD5f3b0d58160288917AA56653660E9",
    "0x6B175474E89094C44Da98b954EedeAC495271d0F",
    "0xc02aaa39b223fe8d0a0e5c4f27ead9083c756cc2",
    "0x43b4fdfd4ff969587185cdb6f0bd875c5fc83f8c",
    "0x7a250d5630B4cF539739dF2C5dAcb4c659F2488D",
    "0x634FC1A8ADdBB59aD54A7e825a0d70Aa40d3f157",
    997000
  ],
  "solcInputHash": "6a2ca1d4f1f92e4320b6f8bf05fe5b0c",
  "bytecode": "0x60806040523480156200001157600080fd5b5060405162002350380380620023508339810160408190526200003491620004da565b6000620000406200031f565b600080546001600160a01b0319166001600160a01b03831690811782556040519293509160008051602062002330833981519152908290a350620f4240811115620000a85760405162461bcd60e51b81526004016200009f9062000698565b60405180910390fd5b6001600160a01b038416620000d15760405162461bcd60e51b81526004016200009f90620005d9565b6001600160a01b038816620000fa5760405162461bcd60e51b81526004016200009f9062000578565b6001600160a01b038716620001235760405162461bcd60e51b81526004016200009f90620005af565b6001600160a01b0386166200014c5760405162461bcd60e51b81526004016200009f9062000647565b6001600160a01b038516620001755760405162461bcd60e51b81526004016200009f906200066f565b6001600160a01b0383166200019e5760405162461bcd60e51b81526004016200009f9062000610565b600280546001600160a01b03199081166001600160a01b038781169190911783556003805483168c83161790556005805483168b83161790556006805483168a831617905560078054831689831617905560048054909216908616179055600182905560408051828152606081018252919060208301908036833750508151620002309260099250602001906200043c565b508560096000815481106200024157fe5b9060005260206000200160006101000a8154816001600160a01b0302191690836001600160a01b031602179055508460096001815481106200027f57fe5b9060005260206000200160006101000a8154816001600160a01b0302191690836001600160a01b03160217905550620002c3826200032360201b62000c771760201c565b620002cd6200042d565b6001600160a01b03167fa433cdbe19ffaa542269ea24af0dae7d940f72e08a8a7ed872f006a149a908e1600154604051620003099190620006cf565b60405180910390a25050505050505050620006d8565b3390565b6200032d6200031f565b6001600160a01b0316620003406200042d565b6001600160a01b0316146200039c576040805162461bcd60e51b815260206004820181905260248201527f4f776e61626c653a2063616c6c6572206973206e6f7420746865206f776e6572604482015290519081900360640190fd5b6001600160a01b038116620003e35760405162461bcd60e51b81526004018080602001828103825260268152602001806200230a6026913960400191505060405180910390fd5b600080546040516001600160a01b03808516939216916000805160206200233083398151915291a3600080546001600160a01b0319166001600160a01b0392909216919091179055565b6000546001600160a01b031690565b82805482825590600052602060002090810192821562000494579160200282015b828111156200049457825182546001600160a01b0319166001600160a01b039091161782556020909201916001909101906200045d565b50620004a2929150620004a6565b5090565b5b80821115620004a25760008155600101620004a7565b80516001600160a01b0381168114620004d557600080fd5b919050565b600080600080600080600080610100898b031215620004f7578384fd5b6200050289620004bd565b97506200051260208a01620004bd565b96506200052260408a01620004bd565b95506200053260608a01620004bd565b94506200054260808a01620004bd565b93506200055260a08a01620004bd565b92506200056260c08a01620004bd565b915060e089015190509295985092959890939650565b6020808252601c908201527f54424476322f6e756c6c2d68656769632d6574682d6f7074696f6e7300000000604082015260600190565b60208082526010908201526f1510911d8c8bdb9d5b1b0b585b1d5cd960821b604082015260600190565b60208082526015908201527f54424476322f6e756c6c2d616c7573642d706f6f6c0000000000000000000000604082015260600190565b60208082526019908201527f54424476322f6e756c6c2d756e69737761702d726f7574657200000000000000604082015260600190565b6020808252600e908201526d54424476322f6e756c6c2d64616960901b604082015260600190565b6020808252600f908201526e0a88488ec645edcead8d85aeecae8d608b1b604082015260600190565b60208082526018908201527f54424476322f696e76616c69642d6665652d616d6f756e740000000000000000604082015260600190565b90815260200190565b611c2280620006e86000396000f3fe6080604052600436106100e15760003560e01c80638da5cb5b1161007f578063ddca3f4311610059578063ddca3f431461022c578063e8d53be614610241578063f2fde38b14610261578063f43e56d714610281576100e8565b80638da5cb5b146101ca57806397bcb1a7146101ec578063cd3a1ca21461020c576100e8565b806369fe0e2d116100bb57806369fe0e2d14610167578063715018a6146101875780637a6d1cfe1461019c57806383d3bb79146100ed576100e8565b80630c242f0c146100ed578063476343ee1461012357806351826dbd1461013a576100e8565b366100e857005b600080fd5b3480156100f957600080fd5b5061010d6101083660046116d2565b6102a1565b60405161011a9190611a93565b60405180910390f35b34801561012f57600080fd5b506101386103da565b005b34801561014657600080fd5b5061015a6101553660046115a1565b610533565b60405161011a9190611882565b34801561017357600080fd5b506101386101823660046116d2565b6105bc565b34801561019357600080fd5b50610138610693565b3480156101a857600080fd5b506101bc6101b73660046115d9565b61073f565b60405161011a929190611acc565b3480156101d657600080fd5b506101df61077b565b60405161011a9190611831565b3480156101f857600080fd5b506101df6102073660046116d2565b61078a565b34801561021857600080fd5b5061010d61022736600461175b565b6107b4565b34801561023857600080fd5b5061010d6108f4565b34801561024d57600080fd5b5061010d61025c36600461175b565b6108fa565b34801561026d57600080fd5b5061013861027c3660046115a1565b610c77565b34801561028d57600080fd5b5061010d61029c366004611702565b610d79565b6002546040516307211ef760e01b815260009182916001600160a01b03909116906307211ef7906102db90849060019088906004016118f4565b60206040518083038186803b1580156102f357600080fd5b505afa158015610307573d6000803e3d6000fd5b505050506040513d601f19601f8201168201806040525081019061032b91906116ea565b6004805460405163d06ca61f60e01b81529293506103d1926001600160a01b039091169163d06ca61f9161036491869160099101611ab3565b60006040518083038186803b15801561037c57600080fd5b505afa158015610390573d6000803e3d6000fd5b505050506040513d6000823e601f3d908101601f191682016040526103b89190810190611604565b6001815181106103c457fe5b6020026020010151611390565b9150505b919050565b6103e26113b4565b6001600160a01b03166103f361077b565b6001600160a01b03161461043c576040805162461bcd60e51b81526020600482018190526024820152600080516020611bcd833981519152604482015290519081900360640190fd5b600047116104655760405162461bcd60e51b815260040161045c906119b7565b60405180910390fd5b61046d61077b565b6001600160a01b03167f9bba815921f12cb7b1408e14b5ade745234397d39623ae5e7c82d693cb45815f476040516104a59190611a93565b60405180910390a260006104b761077b565b6001600160a01b0316476040516104cd9061182e565b60006040518083038185875af1925050503d806000811461050a576040519150601f19603f3d011682016040523d82523d6000602084013e61050f565b606091505b50509050806105305760405162461bcd60e51b815260040161045c90611912565b50565b6001600160a01b0381166000908152600860209081526040808320805482518185028101850190935280835260609492939192909184015b828210156105b15783829060005260206000209060020201604051806040016040529081600082015481526020016001820154815250508152602001906001019061056b565b505050509050919050565b6105c46113b4565b6001600160a01b03166105d561077b565b6001600160a01b03161461061e576040805162461bcd60e51b81526020600482018190526024820152600080516020611bcd833981519152604482015290519081900360640190fd5b620f42408111156106415760405162461bcd60e51b815260040161045c906119ee565b600181905561064e61077b565b6001600160a01b03167fa433cdbe19ffaa542269ea24af0dae7d940f72e08a8a7ed872f006a149a908e16001546040516106889190611a93565b60405180910390a250565b61069b6113b4565b6001600160a01b03166106ac61077b565b6001600160a01b0316146106f5576040805162461bcd60e51b81526020600482018190526024820152600080516020611bcd833981519152604482015290519081900360640190fd5b600080546040516001600160a01b03909116907f8be0079c531659141344cd1fd0a4f28419497f9722a3daafe3b4186f6b6457e0908390a3600080546001600160a01b0319169055565b6008602052816000526040600020818154811061075b57600080fd5b600091825260209091206002909102018054600190910154909250905082565b6000546001600160a01b031690565b6009818154811061079a57600080fd5b6000918252602090912001546001600160a01b0316905081565b6002546040516307211ef760e01b815260009182916001600160a01b03909116906307211ef7906107ee9084906001908a906004016118f4565b60206040518083038186803b15801561080657600080fd5b505afa15801561081a573d6000803e3d6000fd5b505050506040513d601f19601f8201168201806040525081019061083e91906116ea565b6004805460405163d06ca61f60e01b81529293506000926001600160a01b039091169163d06ca61f9161087691869160099101611ab3565b60006040518083038186803b15801561088e57600080fd5b505afa1580156108a2573d6000803e3d6000fd5b505050506040513d6000823e601f3d908101601f191682016040526108ca9190810190611604565b90506108e7876108e0836001815181106103c457fe5b87876108fa565b925050505b949350505050565b60015481565b6000600182600281111561090a57fe5b14806109215750600282600281111561091f57fe5b145b61093d5760405162461bcd60e51b815260040161045c90611949565b60035460408051635c4443cf60e11b815290516000926001600160a01b03169163b888879e916004808301926020929190829003018186803b15801561098257600080fd5b505afa158015610996573d6000803e3d6000fd5b505050506040513d601f19601f820116820180604052508101906109ba91906115bd565b6001600160a01b031663feaf968c6040518163ffffffff1660e01b815260040160a06040518083038186803b1580156109f257600080fd5b505afa158015610a06573d6000803e3d6000fd5b505050506040513d601f19601f82011682018060405250810190610a2a9190611799565b5050600354604080516318f88e5b60e01b815290519395508594506000936001600160a01b0390921692506318f88e5b916004808301926020929190829003018186803b158015610a7a57600080fd5b505afa158015610a8e573d6000803e3d6000fd5b505050506040513d601f19601f82011682018060405250810190610ab291906116ea565b90506001856002811115610ac257fe5b1415610bb35781861115610b64576000610aea6305f5e100610ae48a866113b8565b906113b8565b90506000610af78a611418565b90506000610b146064610b0e876305f5e1006113b8565b9061145a565b9050610b2e610b278a610ae485886113b8565b82906114c1565b9050610b4b610b27610b408b8861151b565b6305f5e100906113b8565b9050610b57838261145a565b96505050505050506108ec565b6000610b786305f5e100610ae48a866113b8565b90506000610b858a611418565b90506000610b4b610b9f6064610b0e886305f5e1006113b8565b610bad86610ae4868e6113b8565b906114c1565b81861015610c2e576000610bd183610ae46305f5e100818c8c6113b8565b90506000610bde8a611418565b90506000610bf985610ae46064610b0e8d6305f5e1006113b8565b9050610c0e610b2786610ae48181878a6113b8565b9050610b4b610b27610c20878c61151b565b610ae48c6305f5e1006113b8565b6000610c426305f5e100610ae48a8a6113b8565b90506000610c4f8a611418565b90506000610b4b610c696064610b0e8c6305f5e1006113b8565b610bad86610ae4868a6113b8565b610c7f6113b4565b6001600160a01b0316610c9061077b565b6001600160a01b031614610cd9576040805162461bcd60e51b81526020600482018190526024820152600080516020611bcd833981519152604482015290519081900360640190fd5b6001600160a01b038116610d1e5760405162461bcd60e51b8152600401808060200182810382526026815260200180611b866026913960400191505060405180910390fd5b600080546040516001600160a01b03808516939216917f8be0079c531659141344cd1fd0a4f28419497f9722a3daafe3b4186f6b6457e091a3600080546001600160a01b0319166001600160a01b0392909216919091179055565b6005546040516323b872dd60e01b81526000916001600160a01b0316906323b872dd90610dae90339030908c90600401611845565b602060405180830381600087803b158015610dc857600080fd5b505af1158015610ddc573d6000803e3d6000fd5b505050506040513d601f19601f82011682018060405250810190610e0091906116b2565b610e1c5760405162461bcd60e51b815260040161045c90611a25565b6002546040516307211ef760e01b81526000916001600160a01b0316906307211ef790610e529084906001908d906004016118f4565b60206040518083038186803b158015610e6a57600080fd5b505afa158015610e7e573d6000803e3d6000fd5b505050506040513d601f19601f82011682018060405250810190610ea291906116ea565b60055460025460405163095ea7b360e01b81529293506001600160a01b039182169263095ea7b392610eda9216908c90600401611869565b602060405180830381600087803b158015610ef457600080fd5b505af1158015610f08573d6000803e3d6000fd5b505050506040513d601f19601f82011682018060405250810190610f2c91906116b2565b50600254604051635320bf6b60e11b815282916001600160a01b03169063a6417ed690610f65906000906001908e9087906004016118d1565b602060405180830381600087803b158015610f7f57600080fd5b505af1158015610f93573d6000803e3d6000fd5b505050506040513d601f19601f82011682018060405250810190610fb791906116ea565b14610fd45760405162461bcd60e51b815260040161045c90611980565b6004805460405163d06ca61f60e01b81526000926001600160a01b039092169163d06ca61f9161100991869160099101611ab3565b60006040518083038186803b15801561102157600080fd5b505afa158015611035573d6000803e3d6000fd5b505050506040513d6000823e601f3d908101601f1916820160405261105d9190810190611604565b905083611070826001815181106103c457fe5b1161108d5760405162461bcd60e51b815260040161045c90611a5c565b6006546004805460405163095ea7b360e01b81526001600160a01b039384169363095ea7b3936110c39390911691879101611869565b602060405180830381600087803b1580156110dd57600080fd5b505af11580156110f1573d6000803e3d6000fd5b505050506040513d601f19601f8201168201806040525081019061111591906116b2565b50600480546040516318cbafe560e01b81526001600160a01b03909116916318cbafe59161114e91869189916009913091429101611b06565b600060405180830381600087803b15801561116857600080fd5b505af115801561117c573d6000803e3d6000fd5b505050506040513d6000823e601f3d908101601f191682016040526111a49190810190611604565b905060006111b8826001815181106103c457fe5b905060006111c889838c8a6108fa565b9050600360009054906101000a90046001600160a01b03166001600160a01b03166380478ad1838b848e8c6040518663ffffffff1660e01b81526004016112129493929190611b42565b6020604051808303818588803b15801561122b57600080fd5b505af115801561123f573d6000803e3d6000fd5b50505050506040513d601f19601f8201168201806040525081019061126491906116ea565b60035460405163b7760c8f60e01b81529196506001600160a01b03169063b7760c8f906112979088908c90600401611a9c565b600060405180830381600087803b1580156112b157600080fd5b505af11580156112c5573d6000803e3d6000fd5b50505050876001600160a01b03167f0e724df5e11c1b48b06e1835c912b401da8da0d8644be829f811bc3112e26340868d600560009054906101000a90046001600160a01b031686878960018151811061131b57fe5b602002602001015103604051611335959493929190611ada565b60405180910390a2505033600090815260086020908152604080832081518083019092528682528183018d81528154600181810184559286529390942091516002909302909101918255915191015550509695505050505050565b60006113ae620f4240610b0e600154856113b890919063ffffffff16565b92915050565b3390565b6000826113c7575060006113ae565b828202828482816113d457fe5b04146114115760405162461bcd60e51b8152600401808060200182810382526021815260200180611bac6021913960400191505060405180910390fd5b9392505050565b80600061142b6001610bad84600261145a565b90505b81811015611454578061144a6002610b0e83610bad888261145a565b909250905061142e565b50919050565b60008082116114b0576040805162461bcd60e51b815260206004820152601a60248201527f536166654d6174683a206469766973696f6e206279207a65726f000000000000604482015290519081900360640190fd5b8183816114b957fe5b049392505050565b600082820183811015611411576040805162461bcd60e51b815260206004820152601b60248201527f536166654d6174683a206164646974696f6e206f766572666c6f770000000000604482015290519081900360640190fd5b600082821115611572576040805162461bcd60e51b815260206004820152601e60248201527f536166654d6174683a207375627472616374696f6e206f766572666c6f770000604482015290519081900360640190fd5b50900390565b8035600381106103d557600080fd5b805169ffffffffffffffffffff811681146103d557600080fd5b6000602082840312156115b2578081fd5b813561141181611b70565b6000602082840312156115ce578081fd5b815161141181611b70565b600080604083850312156115eb578081fd5b82356115f681611b70565b946020939093013593505050565b60006020808385031215611616578182fd5b825167ffffffffffffffff8082111561162d578384fd5b818501915085601f830112611640578384fd5b81518181111561164c57fe5b8381026040518582820101818110858211171561166557fe5b604052828152858101935084860182860187018a1015611683578788fd5b8795505b838610156116a5578051855260019590950194938601938601611687565b5098975050505050505050565b6000602082840312156116c3578081fd5b81518015158114611411578182fd5b6000602082840312156116e3578081fd5b5035919050565b6000602082840312156116fb578081fd5b5051919050565b60008060008060008060c0878903121561171a578182fd5b863595506020870135945060408701359350606087013561173a81611b70565b925061174860808801611578565b915060a087013590509295509295509295565b60008060008060808587031215611770578384fd5b84359350602085013592506040850135915061178e60608601611578565b905092959194509250565b600080600080600060a086880312156117b0578081fd5b6117b986611587565b94506020860151935060408601519250606086015191506117dc60808701611587565b90509295509295909350565b6000815480845260208085019450838352808320835b838110156118235781546001600160a01b0316875295820195600191820191016117fe565b509495945050505050565b90565b6001600160a01b0391909116815260200190565b6001600160a01b039384168152919092166020820152604081019190915260600190565b6001600160a01b03929092168252602082015260400190565b602080825282518282018190526000919060409081850190868401855b828110156118c45781518051855286015186850152928401929085019060010161189f565b5091979650505050505050565b600f94850b81529290930b60208301526040820152606081019190915260800190565b600f93840b81529190920b6020820152604081019190915260600190565b6020808252601d908201527f54424476322f6572726f722d7768696c652d7769746864726177696e67000000604082015260600190565b60208082526019908201527f54424476322f696e76616c69642d6f7074696f6e2d7479706500000000000000604082015260600190565b6020808252601e908201527f54424476322f63616e6e6f742d737761702d616c7573642d746f2d6461690000604082015260600190565b60208082526017908201527f54424476322f6e6f2d636f6c6c65637465642d66656573000000000000000000604082015260600190565b60208082526018908201527f54424476322f696e76616c69642d6665652d616d6f756e740000000000000000604082015260600190565b6020808252601b908201527f54424476322f63616e6e6f742d7472616e736665722d616c7573640000000000604082015260600190565b60208082526019908201527f54424476322f6d696e2d6574682d6e6f742d7265616368656400000000000000604082015260600190565b90815260200190565b9182526001600160a01b0316602082015260400190565b6000838252604060208301526108ec60408301846117e8565b918252602082015260400190565b94855260208501939093526001600160a01b039190911660408401526060830152608082015260a00190565b600086825285602083015260a06040830152611b2560a08301866117e8565b6001600160a01b0394909416606083015250608001529392505050565b84815260208101849052604081018390526080810160038310611b6157fe5b82606083015295945050505050565b6001600160a01b038116811461053057600080fdfe4f776e61626c653a206e6577206f776e657220697320746865207a65726f2061646472657373536166654d6174683a206d756c7469706c69636174696f6e206f766572666c6f774f776e61626c653a2063616c6c6572206973206e6f7420746865206f776e6572a2646970667358221220afa86db9acd9d79b6ea5f321ac3331ec150716e3cc0700ba277d0ce37dc00f5b64736f6c634300070600334f776e61626c653a206e6577206f776e657220697320746865207a65726f20616464726573738be0079c531659141344cd1fd0a4f28419497f9722a3daafe3b4186f6b6457e0",
  "devdoc": {
    "kind": "dev",
    "methods": {
      "getAmount(uint256,uint256,uint256,uint8)": {
        "params": {
          "fees": "Amount of Eth paid",
          "optionType": "1 for PUT, 2 for CALL",
          "period": "Option period in seconds (min 1 day, max 28 days) ",
          "strike": "Strike price (with 8 decimals)"
        }
      },
      "getEthFeeFromAlUSD(uint256)": {
        "params": {
          "amount": "alUSD amount used"
        }
      },
      "getOptionAmountFromAlUSD(uint256,uint256,uint256,uint8)": {
        "params": {
          "amount": "Amount of AlUSD paid",
          "optionType": "1 for PUT, 2 for CALL",
          "period": "Option period in seconds (min 1 day, max 28 days) ",
          "strike": "Strike price (with 8 decimals)"
        }
      },
      "getOptionsByOwner(address)": {
        "params": {
          "owner": "Owner of the options to retrieve"
        }
      },
      "getUnderlyingFeeFromAlUSD(uint256)": {
        "params": {
          "amount": "alUSD amount used"
        }
      },
      "owner()": {
        "details": "Returns the address of the current owner."
      },
      "renounceOwnership()": {
        "details": "Leaves the contract without owner. It will not be possible to call `onlyOwner` functions anymore. Can only be called by the current owner. NOTE: Renouncing ownership will leave the contract without an owner, thereby removing any functionality that is only available to the owner."
      },
      "setFee(uint256)": {
        "params": {
          "_fee": "The new fee to use. To set 1% fees => 990000, 0.1% fees => 999000 "
        }
      },
      "transferOwnership(address)": {
        "details": "Transfers ownership of the contract to a new account (`newOwner`). Can only be called by the current owner."
      }
    },
    "version": 1
  },
  "userdoc": {
    "kind": "user",
    "methods": {
      "getAmount(uint256,uint256,uint256,uint8)": {
        "notice": "Retrieve the option size from the raw eth fee paid to Hegic"
      },
      "getEthFeeFromAlUSD(uint256)": {
        "notice": "Retrieve option creation cost in eth"
      },
      "getOptionAmountFromAlUSD(uint256,uint256,uint256,uint8)": {
        "notice": "Retrieve the option size depending on all parameters + alUSD paid"
      },
      "getOptionsByOwner(address)": {
        "notice": "Retrieve created options"
      },
      "getUnderlyingFeeFromAlUSD(uint256)": {
        "notice": "Retrieve option creation cost in the underlying token"
      },
      "purchaseOptionWithAlUSD(uint256,uint256,uint256,address,uint8,uint256)": {
        "notice": "ITBDv2 overriden functions"
      },
      "setFee(uint256)": {
        "notice": "Change the charged fee on each option purchase"
      },
      "withdrawFees()": {
        "notice": "Withdraw collected fees (all contract eth balance) to owner address"
      }
    },
    "version": 1
  },
  "storageLayout": {
    "storage": [
      {
        "astId": 7,
        "contract": "contracts/TBDETHv2.sol:TBDETHv2",
        "label": "_owner",
        "offset": 0,
        "slot": "0",
        "type": "t_address"
      },
      {
        "astId": 3782,
        "contract": "contracts/TBDETHv2.sol:TBDETHv2",
        "label": "fee",
        "offset": 0,
        "slot": "1",
        "type": "t_uint256"
      },
      {
        "astId": 2935,
        "contract": "contracts/TBDETHv2.sol:TBDETHv2",
        "label": "alUSDMetaPool",
        "offset": 0,
        "slot": "2",
        "type": "t_contract(ICurve)3916"
      },
      {
        "astId": 2937,
        "contract": "contracts/TBDETHv2.sol:TBDETHv2",
        "label": "hegicETHOptions",
        "offset": 0,
        "slot": "3",
        "type": "t_contract(IHegicETHOptions)4154"
      },
      {
        "astId": 2939,
        "contract": "contracts/TBDETHv2.sol:TBDETHv2",
        "label": "uniswapV2Router02",
        "offset": 0,
        "slot": "4",
        "type": "t_contract(IUniswapV2Router02)4380"
      },
      {
        "astId": 2941,
        "contract": "contracts/TBDETHv2.sol:TBDETHv2",
        "label": "alUSD",
        "offset": 0,
        "slot": "5",
        "type": "t_contract(IERC20)3946"
      },
      {
        "astId": 2943,
        "contract": "contracts/TBDETHv2.sol:TBDETHv2",
        "label": "Dai",
        "offset": 0,
        "slot": "6",
        "type": "t_contract(IERC20)3946"
      },
      {
        "astId": 2945,
        "contract": "contracts/TBDETHv2.sol:TBDETHv2",
        "label": "Weth",
        "offset": 0,
        "slot": "7",
        "type": "t_contract(IWETH)4391"
      },
      {
        "astId": 2950,
        "contract": "contracts/TBDETHv2.sol:TBDETHv2",
        "label": "optionsByOwner",
        "offset": 0,
        "slot": "8",
        "type": "t_mapping(t_address,t_array(t_struct(Option)4277_storage)dyn_storage)"
      },
      {
        "astId": 2953,
        "contract": "contracts/TBDETHv2.sol:TBDETHv2",
        "label": "uniswapExchangePath",
        "offset": 0,
        "slot": "9",
        "type": "t_array(t_address)dyn_storage"
      }
    ],
    "types": {
      "t_address": {
        "encoding": "inplace",
        "label": "address",
        "numberOfBytes": "20"
      },
      "t_array(t_address)dyn_storage": {
        "base": "t_address",
        "encoding": "dynamic_array",
        "label": "address[]",
        "numberOfBytes": "32"
      },
      "t_array(t_struct(Option)4277_storage)dyn_storage": {
        "base": "t_struct(Option)4277_storage",
        "encoding": "dynamic_array",
        "label": "struct ITBDv2.Option[]",
        "numberOfBytes": "32"
      },
      "t_contract(ICurve)3916": {
        "encoding": "inplace",
        "label": "contract ICurve",
        "numberOfBytes": "20"
      },
      "t_contract(IERC20)3946": {
        "encoding": "inplace",
        "label": "contract IERC20",
        "numberOfBytes": "20"
      },
      "t_contract(IHegicETHOptions)4154": {
        "encoding": "inplace",
        "label": "contract IHegicETHOptions",
        "numberOfBytes": "20"
      },
      "t_contract(IUniswapV2Router02)4380": {
        "encoding": "inplace",
        "label": "contract IUniswapV2Router02",
        "numberOfBytes": "20"
      },
      "t_contract(IWETH)4391": {
        "encoding": "inplace",
        "label": "contract IWETH",
        "numberOfBytes": "20"
      },
      "t_mapping(t_address,t_array(t_struct(Option)4277_storage)dyn_storage)": {
        "encoding": "mapping",
        "key": "t_address",
        "label": "mapping(address => struct ITBDv2.Option[])",
        "numberOfBytes": "32",
        "value": "t_array(t_struct(Option)4277_storage)dyn_storage"
      },
      "t_struct(Option)4277_storage": {
        "encoding": "inplace",
        "label": "struct ITBDv2.Option",
        "members": [
          {
            "astId": 4274,
            "contract": "contracts/TBDETHv2.sol:TBDETHv2",
            "label": "id",
            "offset": 0,
            "slot": "0",
            "type": "t_uint256"
          },
          {
            "astId": 4276,
            "contract": "contracts/TBDETHv2.sol:TBDETHv2",
            "label": "priceInAlUSD",
            "offset": 0,
            "slot": "1",
            "type": "t_uint256"
          }
        ],
        "numberOfBytes": "64"
      },
      "t_uint256": {
        "encoding": "inplace",
        "label": "uint256",
        "numberOfBytes": "32"
      }
    }
  }
}