{
  "address": "0xa77B9c30d9A367275460d2A77E453af708Aa88d6",
  "abi": [
    {
      "inputs": [
        {
          "internalType": "address",
          "name": "_hegicETHOptions",
          "type": "address"
        },
        {
          "internalType": "address",
          "name": "_alUSD",
          "type": "address"
        },
        {
          "internalType": "address",
          "name": "_Dai",
          "type": "address"
        },
        {
          "internalType": "address",
          "name": "_Weth",
          "type": "address"
        },
        {
          "internalType": "address",
          "name": "_alUSDMetaPool",
          "type": "address"
        },
        {
          "internalType": "address",
          "name": "_uniswapV2Router02",
          "type": "address"
        }
      ],
      "stateMutability": "nonpayable",
      "type": "constructor"
    },
    {
      "anonymous": false,
      "inputs": [
        {
          "indexed": true,
          "internalType": "address",
          "name": "owner",
          "type": "address"
        },
        {
          "indexed": false,
          "internalType": "uint256",
          "name": "optionID",
          "type": "uint256"
        },
        {
          "indexed": false,
          "internalType": "uint256",
          "name": "purchasePrice",
          "type": "uint256"
        },
        {
          "indexed": false,
          "internalType": "address",
          "name": "purchaseToken",
          "type": "address"
        },
        {
          "indexed": false,
          "internalType": "uint256",
          "name": "fees",
          "type": "uint256"
        }
      ],
      "name": "PurchaseOption",
      "type": "event"
    },
    {
      "inputs": [
        {
          "internalType": "uint256",
          "name": "period",
          "type": "uint256"
        },
        {
          "internalType": "uint256",
          "name": "fees",
          "type": "uint256"
        },
        {
          "internalType": "uint256",
          "name": "strike",
          "type": "uint256"
        },
        {
          "internalType": "enum IHegicOptionTypes.OptionType",
          "name": "optionType",
          "type": "uint8"
        }
      ],
      "name": "getAmount",
      "outputs": [
        {
          "internalType": "uint256",
          "name": "",
          "type": "uint256"
        }
      ],
      "stateMutability": "view",
      "type": "function"
    },
    {
      "inputs": [
        {
          "internalType": "uint256",
          "name": "amount",
          "type": "uint256"
        }
      ],
      "name": "getEthFeeFromAlUSD",
      "outputs": [
        {
          "internalType": "uint256",
          "name": "",
          "type": "uint256"
        }
      ],
      "stateMutability": "view",
      "type": "function"
    },
    {
      "inputs": [
        {
          "internalType": "uint256",
          "name": "period",
          "type": "uint256"
        },
        {
          "internalType": "uint256",
          "name": "amount",
          "type": "uint256"
        },
        {
          "internalType": "uint256",
          "name": "strike",
          "type": "uint256"
        },
        {
          "internalType": "enum IHegicOptionTypes.OptionType",
          "name": "optionType",
          "type": "uint8"
        }
      ],
      "name": "getOptionAmountFromAlUSD",
      "outputs": [
        {
          "internalType": "uint256",
          "name": "",
          "type": "uint256"
        }
      ],
      "stateMutability": "view",
      "type": "function"
    },
    {
      "inputs": [
        {
          "internalType": "address",
          "name": "owner",
          "type": "address"
        }
      ],
      "name": "getOptionsByOwner",
      "outputs": [
        {
          "components": [
            {
              "internalType": "uint256",
              "name": "id",
              "type": "uint256"
            },
            {
              "internalType": "uint256",
              "name": "priceInAlUSD",
              "type": "uint256"
            }
          ],
          "internalType": "struct ITBD.Option[]",
          "name": "",
          "type": "tuple[]"
        }
      ],
      "stateMutability": "view",
      "type": "function"
    },
    {
      "inputs": [
        {
          "internalType": "uint256",
          "name": "amount",
          "type": "uint256"
        }
      ],
      "name": "getUnderlyingFeeFromAlUSD",
      "outputs": [
        {
          "internalType": "uint256",
          "name": "",
          "type": "uint256"
        }
      ],
      "stateMutability": "view",
      "type": "function"
    },
    {
      "inputs": [
        {
          "internalType": "address",
          "name": "",
          "type": "address"
        },
        {
          "internalType": "uint256",
          "name": "",
          "type": "uint256"
        }
      ],
      "name": "optionsByOwner",
      "outputs": [
        {
          "internalType": "uint256",
          "name": "id",
          "type": "uint256"
        },
        {
          "internalType": "uint256",
          "name": "priceInAlUSD",
          "type": "uint256"
        }
      ],
      "stateMutability": "view",
      "type": "function"
    },
    {
      "inputs": [
        {
          "internalType": "uint256",
          "name": "amount",
          "type": "uint256"
        },
        {
          "internalType": "uint256",
          "name": "strike",
          "type": "uint256"
        },
        {
          "internalType": "uint256",
          "name": "period",
          "type": "uint256"
        },
        {
          "internalType": "address",
          "name": "owner",
          "type": "address"
        },
        {
          "internalType": "enum IHegicOptionTypes.OptionType",
          "name": "optionType",
          "type": "uint8"
        },
        {
          "internalType": "uint256",
          "name": "minETH",
          "type": "uint256"
        }
      ],
      "name": "purchaseOptionWithAlUSD",
      "outputs": [
        {
          "internalType": "uint256",
          "name": "optionID",
          "type": "uint256"
        }
      ],
      "stateMutability": "nonpayable",
      "type": "function"
    },
    {
      "inputs": [
        {
          "internalType": "uint256",
          "name": "",
          "type": "uint256"
        }
      ],
      "name": "uniswapExchangePath",
      "outputs": [
        {
          "internalType": "address",
          "name": "",
          "type": "address"
        }
      ],
      "stateMutability": "view",
      "type": "function"
    },
    {
      "stateMutability": "payable",
      "type": "receive"
    }
  ],
  "transactionHash": "0x422adbefdaca93fdbc0a56cfd08e36bbcc51175ecdee873fb2a404c1a6c81380",
  "args": [
    "0xEfC0eEAdC1132A12c9487d800112693bf49EcfA2",
    "0xBC6DA0FE9aD5f3b0d58160288917AA56653660E9",
    "0x6B175474E89094C44Da98b954EedeAC495271d0F",
    "0xc02aaa39b223fe8d0a0e5c4f27ead9083c756cc2",
    "0x43b4fdfd4ff969587185cdb6f0bd875c5fc83f8c",
    "0x7a250d5630B4cF539739dF2C5dAcb4c659F2488D"
  ],
  "solcInputHash": "e9a4a8f9865ffddb31dbb3fa606a7105",
  "bytecode": "0x60806040523480156200001157600080fd5b50604051620017a6380380620017a68339810160408190526200003491620001ec565b600080546001600160a01b03199081166001600160a01b03858116919091179092556001805482168984161790556003805482168884161790556004805482168784161790556005805482168684161790556002805490911691831691909117815560408051828152606081018252919060208301908036833750508151620000c59260079250602001906200014e565b50836007600081548110620000d657fe5b9060005260206000200160006101000a8154816001600160a01b0302191690836001600160a01b031602179055508260076001815481106200011457fe5b9060005260206000200160006101000a8154816001600160a01b0302191690836001600160a01b031602179055505050505050506200026c565b828054828255906000526020600020908101928215620001a6579160200282015b82811115620001a657825182546001600160a01b0319166001600160a01b039091161782556020909201916001909101906200016f565b50620001b4929150620001b8565b5090565b5b80821115620001b45760008155600101620001b9565b80516001600160a01b0381168114620001e757600080fd5b919050565b60008060008060008060c0878903121562000205578182fd5b6200021087620001cf565b95506200022060208801620001cf565b94506200023060408801620001cf565b93506200024060608801620001cf565b92506200025060808801620001cf565b91506200026060a08801620001cf565b90509295509295509295565b61152a806200027c6000396000f3fe60806040526004361061007f5760003560e01c806397bcb1a71161004e57806397bcb1a71461011c578063cd3a1ca214610149578063e8d53be614610169578063f43e56d71461018957610086565b80630c242f0c1461008b57806351826dbd146100c15780637a6d1cfe146100ee57806383d3bb791461008b57610086565b3661008657005b600080fd5b34801561009757600080fd5b506100ab6100a636600461110e565b6101a9565b6040516100b891906113e6565b60405180910390f35b3480156100cd57600080fd5b506100e16100dc366004610fdd565b6102dd565b6040516100b891906112bb565b3480156100fa57600080fd5b5061010e610109366004611015565b610366565b6040516100b892919061141f565b34801561012857600080fd5b5061013c61013736600461110e565b6103a2565b6040516100b8919061126a565b34801561015557600080fd5b506100ab610164366004611197565b6103cc565b34801561017557600080fd5b506100ab610184366004611197565b61050e565b34801561019557600080fd5b506100ab6101a436600461113e565b610894565b600080546040516307211ef760e01b815282916001600160a01b0316906307211ef7906101df908490600190889060040161132d565b60206040518083038186803b1580156101f757600080fd5b505afa15801561020b573d6000803e3d6000fd5b505050506040513d601f19601f8201168201806040525081019061022f9190611126565b60025460405163d06ca61f60e01b81529192506000916001600160a01b039091169063d06ca61f90610268908590600790600401611406565b60006040518083038186803b15801561028057600080fd5b505afa158015610294573d6000803e3d6000fd5b505050506040513d6000823e601f3d908101601f191682016040526102bc9190810190611040565b9050806001815181106102cb57fe5b6020026020010151925050505b919050565b6001600160a01b0381166000908152600660209081526040808320805482518185028101850190935280835260609492939192909184015b8282101561035b57838290600052602060002090600202016040518060400160405290816000820154815260200160018201548152505081526020019060010190610315565b505050509050919050565b6006602052816000526040600020818154811061038257600080fd5b600091825260209091206002909102018054600190910154909250905082565b600781815481106103b257600080fd5b6000918252602090912001546001600160a01b0316905081565b600080546040516307211ef760e01b815282916001600160a01b0316906307211ef7906104029084906001908a9060040161132d565b60206040518083038186803b15801561041a57600080fd5b505afa15801561042e573d6000803e3d6000fd5b505050506040513d601f19601f820116820180604052508101906104529190611126565b60025460405163d06ca61f60e01b81529192506000916001600160a01b039091169063d06ca61f9061048b908590600790600401611406565b60006040518083038186803b1580156104a357600080fd5b505afa1580156104b7573d6000803e3d6000fd5b505050506040513d6000823e601f3d908101601f191682016040526104df9190810190611040565b905061050187826001815181106104f257fe5b6020026020010151878761050e565b925050505b949350505050565b6000600182600281111561051e57fe5b14806105355750600282600281111561053357fe5b145b61055a5760405162461bcd60e51b815260040161055190611382565b60405180910390fd5b60015460408051635c4443cf60e11b815290516000926001600160a01b03169163b888879e916004808301926020929190829003018186803b15801561059f57600080fd5b505afa1580156105b3573d6000803e3d6000fd5b505050506040513d601f19601f820116820180604052508101906105d79190610ff9565b6001600160a01b031663feaf968c6040518163ffffffff1660e01b815260040160a06040518083038186803b15801561060f57600080fd5b505afa158015610623573d6000803e3d6000fd5b505050506040513d601f19601f8201168201806040525081019061064791906111d5565b5050600154604080516318f88e5b60e01b815290519395508594506000936001600160a01b0390921692506318f88e5b916004808301926020929190829003018186803b15801561069757600080fd5b505afa1580156106ab573d6000803e3d6000fd5b505050506040513d601f19601f820116820180604052508101906106cf9190611126565b905060018560028111156106df57fe5b14156107d057818611156107815760006107076305f5e1006107018a86610df2565b90610df2565b905060006107148a610e54565b90506000610731606461072b876305f5e100610df2565b90610e96565b905061074b6107448a6107018588610df2565b8290610efd565b905061076861074461075d8b88610f57565b6305f5e10090610df2565b90506107748382610e96565b9650505050505050610506565b60006107956305f5e1006107018a86610df2565b905060006107a28a610e54565b905060006107686107bc606461072b886305f5e100610df2565b6107ca86610701868e610df2565b90610efd565b8186101561084b5760006107ee836107016305f5e100818c8c610df2565b905060006107fb8a610e54565b9050600061081685610701606461072b8d6305f5e100610df2565b905061082b610744866107018181878a610df2565b905061076861074461083d878c610f57565b6107018c6305f5e100610df2565b600061085f6305f5e1006107018a8a610df2565b9050600061086c8a610e54565b90506000610768610886606461072b8c6305f5e100610df2565b6107ca86610701868a610df2565b6003546040516323b872dd60e01b81526000916001600160a01b0316906323b872dd906108c990339030908c9060040161127e565b602060405180830381600087803b1580156108e357600080fd5b505af11580156108f7573d6000803e3d6000fd5b505050506040513d601f19601f8201168201806040525081019061091b91906110ee565b6109375760405162461bcd60e51b8152600401610551906113af565b600080546040516307211ef760e01b81526001600160a01b03909116906307211ef79061096d9084906001908d9060040161132d565b60206040518083038186803b15801561098557600080fd5b505afa158015610999573d6000803e3d6000fd5b505050506040513d601f19601f820116820180604052508101906109bd9190611126565b60035460005460405163095ea7b360e01b81529293506001600160a01b039182169263095ea7b3926109f59216908c906004016112a2565b602060405180830381600087803b158015610a0f57600080fd5b505af1158015610a23573d6000803e3d6000fd5b505050506040513d601f19601f82011682018060405250810190610a4791906110ee565b5060008054604051635320bf6b60e11b815283926001600160a01b039092169163a6417ed691610a8191906001908e90879060040161130a565b602060405180830381600087803b158015610a9b57600080fd5b505af1158015610aaf573d6000803e3d6000fd5b505050506040513d601f19601f82011682018060405250810190610ad39190611126565b14610af05760405162461bcd60e51b81526004016105519061134b565b6004805460025460405163095ea7b360e01b81526001600160a01b039283169363095ea7b393610b249316918691016112a2565b602060405180830381600087803b158015610b3e57600080fd5b505af1158015610b52573d6000803e3d6000fd5b505050506040513d601f19601f82011682018060405250810190610b7691906110ee565b506002546040516318cbafe560e01b81526000916001600160a01b0316906318cbafe590610bb1908590889060079030904290600401611451565b600060405180830381600087803b158015610bcb57600080fd5b505af1158015610bdf573d6000803e3d6000fd5b505050506040513d6000823e601f3d908101601f19168201604052610c079190810190611040565b90506000610c2b8883600181518110610c1c57fe5b60200260200101518b8961050e565b6001805484519293506001600160a01b0316916380478ad19185918110610c4e57fe5b60200260200101518a848d8b6040518663ffffffff1660e01b8152600401610c79949392919061148d565b6020604051808303818588803b158015610c9257600080fd5b505af1158015610ca6573d6000803e3d6000fd5b50505050506040513d601f19601f82011682018060405250810190610ccb9190611126565b60015460405163b7760c8f60e01b81529195506001600160a01b03169063b7760c8f90610cfe9087908b906004016113ef565b600060405180830381600087803b158015610d1857600080fd5b505af1158015610d2c573d6000803e3d6000fd5b50505050866001600160a01b03167fe449c77d99738f1181f3e8a97bc3c10c842af5b92aa379a34eb4d6bc1a137a79858c600360009054906101000a90046001600160a01b031686600181518110610d8057fe5b6020026020010151604051610d98949392919061142d565b60405180910390a2505033600090815260066020908152604080832081518083019092528582528183018c815281546001818101845592865293909420915160029093029091019182559151910155509695505050505050565b600082610e0157506000610e4e565b82820282848281610e0e57fe5b0414610e4b5760405162461bcd60e51b81526004018080602001828103825260218152602001806114d46021913960400191505060405180910390fd5b90505b92915050565b806000610e6760016107ca846002610e96565b90505b81811015610e905780610e86600261072b836107ca8882610e96565b9092509050610e6a565b50919050565b6000808211610eec576040805162461bcd60e51b815260206004820152601a60248201527f536166654d6174683a206469766973696f6e206279207a65726f000000000000604482015290519081900360640190fd5b818381610ef557fe5b049392505050565b600082820183811015610e4b576040805162461bcd60e51b815260206004820152601b60248201527f536166654d6174683a206164646974696f6e206f766572666c6f770000000000604482015290519081900360640190fd5b600082821115610fae576040805162461bcd60e51b815260206004820152601e60248201527f536166654d6174683a207375627472616374696f6e206f766572666c6f770000604482015290519081900360640190fd5b50900390565b8035600381106102d857600080fd5b805169ffffffffffffffffffff811681146102d857600080fd5b600060208284031215610fee578081fd5b8135610e4b816114bb565b60006020828403121561100a578081fd5b8151610e4b816114bb565b60008060408385031215611027578081fd5b8235611032816114bb565b946020939093013593505050565b60006020808385031215611052578182fd5b825167ffffffffffffffff80821115611069578384fd5b818501915085601f83011261107c578384fd5b81518181111561108857fe5b838102604051858282010181811085821117156110a157fe5b604052828152858101935084860182860187018a10156110bf578788fd5b8795505b838610156110e15780518552600195909501949386019386016110c3565b5098975050505050505050565b6000602082840312156110ff578081fd5b81518015158114610e4b578182fd5b60006020828403121561111f578081fd5b5035919050565b600060208284031215611137578081fd5b5051919050565b60008060008060008060c08789031215611156578182fd5b8635955060208701359450604087013593506060870135611176816114bb565b925061118460808801610fb4565b915060a087013590509295509295509295565b600080600080608085870312156111ac578384fd5b8435935060208501359250604085013591506111ca60608601610fb4565b905092959194509250565b600080600080600060a086880312156111ec578081fd5b6111f586610fc3565b945060208601519350604086015192506060860151915061121860808701610fc3565b90509295509295909350565b6000815480845260208085019450838352808320835b8381101561125f5781546001600160a01b03168752958201956001918201910161123a565b509495945050505050565b6001600160a01b0391909116815260200190565b6001600160a01b039384168152919092166020820152604081019190915260600190565b6001600160a01b03929092168252602082015260400190565b602080825282518282018190526000919060409081850190868401855b828110156112fd578151805185528601518685015292840192908501906001016112d8565b5091979650505050505050565b600f94850b81529290930b60208301526040820152606081019190915260800190565b600f93840b81529190920b6020820152604081019190915260600190565b6020808252601c908201527f5442442f63616e6e6f742d737761702d616c7573642d746f2d64616900000000604082015260600190565b602080825260139082015272696e76616c6964206f7074696f6e207479706560681b604082015260600190565b60208082526019908201527f5442442f63616e6e6f742d7472616e736665722d616c75736400000000000000604082015260600190565b90815260200190565b9182526001600160a01b0316602082015260400190565b6000838252604060208301526105066040830184611224565b918252602082015260400190565b93845260208401929092526001600160a01b03166040830152606082015260800190565b600086825285602083015260a0604083015261147060a0830186611224565b6001600160a01b0394909416606083015250608001529392505050565b848152602081018490526040810183905260808101600383106114ac57fe5b82606083015295945050505050565b6001600160a01b03811681146114d057600080fd5b5056fe536166654d6174683a206d756c7469706c69636174696f6e206f766572666c6f77a264697066735822122069980e3c8dcbf545597e3e8daf8ad73c27aedfdef8c6602bc1cbb298157ce2b864736f6c63430007060033",
  "devdoc": {
    "kind": "dev",
    "methods": {
      "getAmount(uint256,uint256,uint256,uint8)": {
        "params": {
          "fees": "Amount of Eth paid",
          "optionType": "1 for PUT, 2 for CALL",
          "period": "Option period in seconds (min 1 day, max 28 days) ",
          "strike": "Strike price (with 8 decimals)"
        }
      },
      "getEthFeeFromAlUSD(uint256)": {
        "params": {
          "amount": "alUSD amount used"
        }
      },
      "getOptionAmountFromAlUSD(uint256,uint256,uint256,uint8)": {
        "params": {
          "amount": "Amount of AlUSD paid",
          "optionType": "1 for PUT, 2 for CALL",
          "period": "Option period in seconds (min 1 day, max 28 days) ",
          "strike": "Strike price (with 8 decimals)"
        }
      },
      "getOptionsByOwner(address)": {
        "params": {
          "owner": "Owner of the options to retrieve"
        }
      },
      "getUnderlyingFeeFromAlUSD(uint256)": {
        "params": {
          "amount": "alUSD amount used"
        }
      }
    },
    "version": 1
  },
  "userdoc": {
    "kind": "user",
    "methods": {
      "getAmount(uint256,uint256,uint256,uint8)": {
        "notice": "Retrieve the option size from the raw eth fee paid to Hegic"
      },
      "getEthFeeFromAlUSD(uint256)": {
        "notice": "Retrieve option creation cost in eth"
      },
      "getOptionAmountFromAlUSD(uint256,uint256,uint256,uint8)": {
        "notice": "Retrieve the option size depending on all parameters + alUSD paid"
      },
      "getOptionsByOwner(address)": {
        "notice": "Retrieve created options"
      },
      "getUnderlyingFeeFromAlUSD(uint256)": {
        "notice": "Retrieve option creation cost in the underlying token"
      },
      "purchaseOptionWithAlUSD(uint256,uint256,uint256,address,uint8,uint256)": {
        "notice": "ITBD overriden functions"
      }
    },
    "version": 1
  },
  "storageLayout": {
    "storage": [
      {
        "astId": 1139,
        "contract": "contracts/TBDETH.sol:TBDETH",
        "label": "alUSDMetaPool",
        "offset": 0,
        "slot": "0",
        "type": "t_contract(ICurve)1889"
      },
      {
        "astId": 1141,
        "contract": "contracts/TBDETH.sol:TBDETH",
        "label": "hegicETHOptions",
        "offset": 0,
        "slot": "1",
        "type": "t_contract(IHegicETHOptions)2127"
      },
      {
        "astId": 1143,
        "contract": "contracts/TBDETH.sol:TBDETH",
        "label": "uniswapV2Router02",
        "offset": 0,
        "slot": "2",
        "type": "t_contract(IUniswapV2Router02)2258"
      },
      {
        "astId": 1145,
        "contract": "contracts/TBDETH.sol:TBDETH",
        "label": "alUSD",
        "offset": 0,
        "slot": "3",
        "type": "t_contract(IERC20)1919"
      },
      {
        "astId": 1147,
        "contract": "contracts/TBDETH.sol:TBDETH",
        "label": "Dai",
        "offset": 0,
        "slot": "4",
        "type": "t_contract(IERC20)1919"
      },
      {
        "astId": 1149,
        "contract": "contracts/TBDETH.sol:TBDETH",
        "label": "Weth",
        "offset": 0,
        "slot": "5",
        "type": "t_contract(IWETH)2269"
      },
      {
        "astId": 1154,
        "contract": "contracts/TBDETH.sol:TBDETH",
        "label": "optionsByOwner",
        "offset": 0,
        "slot": "6",
        "type": "t_mapping(t_address,t_array(t_struct(Option)2155_storage)dyn_storage)"
      },
      {
        "astId": 1157,
        "contract": "contracts/TBDETH.sol:TBDETH",
        "label": "uniswapExchangePath",
        "offset": 0,
        "slot": "7",
        "type": "t_array(t_address)dyn_storage"
      }
    ],
    "types": {
      "t_address": {
        "encoding": "inplace",
        "label": "address",
        "numberOfBytes": "20"
      },
      "t_array(t_address)dyn_storage": {
        "base": "t_address",
        "encoding": "dynamic_array",
        "label": "address[]",
        "numberOfBytes": "32"
      },
      "t_array(t_struct(Option)2155_storage)dyn_storage": {
        "base": "t_struct(Option)2155_storage",
        "encoding": "dynamic_array",
        "label": "struct ITBD.Option[]",
        "numberOfBytes": "32"
      },
      "t_contract(ICurve)1889": {
        "encoding": "inplace",
        "label": "contract ICurve",
        "numberOfBytes": "20"
      },
      "t_contract(IERC20)1919": {
        "encoding": "inplace",
        "label": "contract IERC20",
        "numberOfBytes": "20"
      },
      "t_contract(IHegicETHOptions)2127": {
        "encoding": "inplace",
        "label": "contract IHegicETHOptions",
        "numberOfBytes": "20"
      },
      "t_contract(IUniswapV2Router02)2258": {
        "encoding": "inplace",
        "label": "contract IUniswapV2Router02",
        "numberOfBytes": "20"
      },
      "t_contract(IWETH)2269": {
        "encoding": "inplace",
        "label": "contract IWETH",
        "numberOfBytes": "20"
      },
      "t_mapping(t_address,t_array(t_struct(Option)2155_storage)dyn_storage)": {
        "encoding": "mapping",
        "key": "t_address",
        "label": "mapping(address => struct ITBD.Option[])",
        "numberOfBytes": "32",
        "value": "t_array(t_struct(Option)2155_storage)dyn_storage"
      },
      "t_struct(Option)2155_storage": {
        "encoding": "inplace",
        "label": "struct ITBD.Option",
        "members": [
          {
            "astId": 2152,
            "contract": "contracts/TBDETH.sol:TBDETH",
            "label": "id",
            "offset": 0,
            "slot": "0",
            "type": "t_uint256"
          },
          {
            "astId": 2154,
            "contract": "contracts/TBDETH.sol:TBDETH",
            "label": "priceInAlUSD",
            "offset": 0,
            "slot": "1",
            "type": "t_uint256"
          }
        ],
        "numberOfBytes": "64"
      },
      "t_uint256": {
        "encoding": "inplace",
        "label": "uint256",
        "numberOfBytes": "32"
      }
    }
  }
}